{
  "_format": "hh-sol-artifact-1",
  "contractName": "AidRegistry",
  "sourceName": "contracts/AidRegistry.sol",
  "abi": [
    {
      "inputs": [
        {
          "internalType": "address",
          "name": "govAddress",
          "type": "address"
        },
        {
          "internalType": "address",
          "name": "aidLedgerAddr",
          "type": "address"
        },
        {
          "internalType": "address",
          "name": "bankAddress",
          "type": "address"
        },
        {
          "internalType": "address",
          "name": "auditorAddress",
          "type": "address"
        }
      ],
      "stateMutability": "nonpayable",
      "type": "constructor"
    },
    {
      "inputs": [],
      "name": "AccessControlBadConfirmation",
      "type": "error"
    },
    {
      "inputs": [
        {
          "internalType": "address",
          "name": "account",
          "type": "address"
        },
        {
          "internalType": "bytes32",
          "name": "neededRole",
          "type": "bytes32"
        }
      ],
      "name": "AccessControlUnauthorizedAccount",
      "type": "error"
    },
    {
      "inputs": [],
      "name": "ReentrancyGuardReentrantCall",
      "type": "error"
    },
    {
      "anonymous": false,
      "inputs": [
        {
          "indexed": true,
          "internalType": "bytes32",
          "name": "cnicHash",
          "type": "bytes32"
        },
        {
          "indexed": false,
          "internalType": "string",
          "name": "reasonCode",
          "type": "string"
        },
        {
          "indexed": false,
          "internalType": "address",
          "name": "auditor",
          "type": "address"
        },
        {
          "indexed": false,
          "internalType": "uint256",
          "name": "timestamp",
          "type": "uint256"
        }
      ],
      "name": "AnomalyFlagged",
      "type": "event"
    },
    {
      "anonymous": false,
      "inputs": [
        {
          "indexed": true,
          "internalType": "bytes32",
          "name": "cnicHash",
          "type": "bytes32"
        },
        {
          "indexed": false,
          "internalType": "uint256",
          "name": "timestamp",
          "type": "uint256"
        }
      ],
      "name": "BeneficiaryApplied",
      "type": "event"
    },
    {
      "anonymous": false,
      "inputs": [
        {
          "indexed": true,
          "internalType": "bytes32",
          "name": "cnicHash",
          "type": "bytes32"
        },
        {
          "indexed": false,
          "internalType": "uint256",
          "name": "quarterlyBalance",
          "type": "uint256"
        },
        {
          "indexed": false,
          "internalType": "address",
          "name": "issuedBy",
          "type": "address"
        }
      ],
      "name": "CardIssued",
      "type": "event"
    },
    {
      "anonymous": false,
      "inputs": [
        {
          "indexed": true,
          "internalType": "bytes32",
          "name": "cnicHash",
          "type": "bytes32"
        },
        {
          "indexed": false,
          "internalType": "uint256",
          "name": "amount",
          "type": "uint256"
        },
        {
          "indexed": false,
          "internalType": "uint256",
          "name": "remaining",
          "type": "uint256"
        },
        {
          "indexed": false,
          "internalType": "address",
          "name": "bank",
          "type": "address"
        }
      ],
      "name": "CashWithdrawal",
      "type": "event"
    },
    {
      "anonymous": false,
      "inputs": [
        {
          "indexed": true,
          "internalType": "bytes32",
          "name": "cnicHash",
          "type": "bytes32"
        },
        {
          "indexed": false,
          "internalType": "bool",
          "name": "eligible",
          "type": "bool"
        },
        {
          "indexed": false,
          "internalType": "uint256",
          "name": "pmtScore",
          "type": "uint256"
        },
        {
          "indexed": false,
          "internalType": "bool",
          "name": "isUrban",
          "type": "bool"
        },
        {
          "indexed": false,
          "internalType": "string",
          "name": "reason",
          "type": "string"
        },
        {
          "indexed": false,
          "internalType": "address",
          "name": "actor",
          "type": "address"
        }
      ],
      "name": "EligibilityResult",
      "type": "event"
    },
    {
      "anonymous": false,
      "inputs": [
        {
          "indexed": true,
          "internalType": "bytes32",
          "name": "cnicHash",
          "type": "bytes32"
        },
        {
          "indexed": false,
          "internalType": "uint256",
          "name": "reclaimedAmount",
          "type": "uint256"
        },
        {
          "indexed": false,
          "internalType": "uint256",
          "name": "timestamp",
          "type": "uint256"
        }
      ],
      "name": "FundsExpiredReclaimed",
      "type": "event"
    },
    {
      "anonymous": false,
      "inputs": [
        {
          "indexed": true,
          "internalType": "bytes32",
          "name": "cnicHash",
          "type": "bytes32"
        },
        {
          "indexed": false,
          "internalType": "bool",
          "name": "passed",
          "type": "bool"
        },
        {
          "indexed": false,
          "internalType": "string",
          "name": "reason",
          "type": "string"
        },
        {
          "indexed": false,
          "internalType": "address",
          "name": "actor",
          "type": "address"
        }
      ],
      "name": "KycResult",
      "type": "event"
    },
    {
      "anonymous": false,
      "inputs": [
        {
          "indexed": true,
          "internalType": "bytes32",
          "name": "role",
          "type": "bytes32"
        },
        {
          "indexed": true,
          "internalType": "bytes32",
          "name": "previousAdminRole",
          "type": "bytes32"
        },
        {
          "indexed": true,
          "internalType": "bytes32",
          "name": "newAdminRole",
          "type": "bytes32"
        }
      ],
      "name": "RoleAdminChanged",
      "type": "event"
    },
    {
      "anonymous": false,
      "inputs": [
        {
          "indexed": true,
          "internalType": "bytes32",
          "name": "role",
          "type": "bytes32"
        },
        {
          "indexed": true,
          "internalType": "address",
          "name": "account",
          "type": "address"
        },
        {
          "indexed": true,
          "internalType": "address",
          "name": "sender",
          "type": "address"
        }
      ],
      "name": "RoleGranted",
      "type": "event"
    },
    {
      "anonymous": false,
      "inputs": [
        {
          "indexed": true,
          "internalType": "bytes32",
          "name": "role",
          "type": "bytes32"
        },
        {
          "indexed": true,
          "internalType": "address",
          "name": "account",
          "type": "address"
        },
        {
          "indexed": true,
          "internalType": "address",
          "name": "sender",
          "type": "address"
        }
      ],
      "name": "RoleRevoked",
      "type": "event"
    },
    {
      "anonymous": false,
      "inputs": [
        {
          "indexed": true,
          "internalType": "bytes32",
          "name": "cnicHash",
          "type": "bytes32"
        },
        {
          "indexed": false,
          "internalType": "uint256",
          "name": "amount",
          "type": "uint256"
        },
        {
          "indexed": false,
          "internalType": "uint256",
          "name": "remaining",
          "type": "uint256"
        },
        {
          "indexed": false,
          "internalType": "address",
          "name": "vendor",
          "type": "address"
        }
      ],
      "name": "VendorPurchase",
      "type": "event"
    },
    {
      "inputs": [],
      "name": "DEFAULT_ADMIN_ROLE",
      "outputs": [
        {
          "internalType": "bytes32",
          "name": "",
          "type": "bytes32"
        }
      ],
      "stateMutability": "view",
      "type": "function"
    },
    {
      "inputs": [],
      "name": "anomalyCount",
      "outputs": [
        {
          "internalType": "uint256",
          "name": "",
          "type": "uint256"
        }
      ],
      "stateMutability": "view",
      "type": "function"
    },
    {
      "inputs": [
        {
          "internalType": "uint256",
          "name": "",
          "type": "uint256"
        }
      ],
      "name": "anomalyReports",
      "outputs": [
        {
          "internalType": "bytes32",
          "name": "cnicHash",
          "type": "bytes32"
        },
        {
          "internalType": "string",
          "name": "reasonCode",
          "type": "string"
        },
        {
          "internalType": "address",
          "name": "flaggedBy",
          "type": "address"
        },
        {
          "internalType": "uint256",
          "name": "timestamp",
          "type": "uint256"
        }
      ],
      "stateMutability": "view",
      "type": "function"
    },
    {
      "inputs": [
        {
          "internalType": "bytes32",
          "name": "",
          "type": "bytes32"
        }
      ],
      "name": "beneficiaries",
      "outputs": [
        {
          "internalType": "enum AidRegistry.Status",
          "name": "status",
          "type": "uint8"
        },
        {
          "internalType": "bool",
          "name": "kycPassed",
          "type": "bool"
        },
        {
          "internalType": "uint256",
          "name": "pmtScore",
          "type": "uint256"
        },
        {
          "internalType": "bool",
          "name": "isUrban",
          "type": "bool"
        },
        {
          "internalType": "uint256",
          "name": "cycleStartTimestamp",
          "type": "uint256"
        },
        {
          "internalType": "uint256",
          "name": "quarterlyBalance",
          "type": "uint256"
        },
        {
          "internalType": "uint256",
          "name": "cashWithdrawn",
          "type": "uint256"
        },
        {
          "internalType": "uint256",
          "name": "vendorSpent",
          "type": "uint256"
        },
        {
          "internalType": "uint256",
          "name": "totalReceivedLifetime",
          "type": "uint256"
        },
        {
          "internalType": "bool",
          "name": "fundsExpired",
          "type": "bool"
        }
      ],
      "stateMutability": "view",
      "type": "function"
    },
    {
      "inputs": [
        {
          "internalType": "bytes32",
          "name": "cnicHash",
          "type": "bytes32"
        },
        {
          "internalType": "string",
          "name": "reasonCode",
          "type": "string"
        }
      ],
      "name": "flagAnomaly",
      "outputs": [],
      "stateMutability": "nonpayable",
      "type": "function"
    },
    {
      "inputs": [
        {
          "internalType": "bytes32",
          "name": "cnicHash",
          "type": "bytes32"
        }
      ],
      "name": "getAuditLog",
      "outputs": [
        {
          "components": [
            {
              "internalType": "enum AidRegistry.Status",
              "name": "newStatus",
              "type": "uint8"
            },
            {
              "internalType": "string",
              "name": "reasonCode",
              "type": "string"
            },
            {
              "internalType": "address",
              "name": "actor",
              "type": "address"
            },
            {
              "internalType": "uint256",
              "name": "timestamp",
              "type": "uint256"
            }
          ],
          "internalType": "struct AidRegistry.AuditEntry[]",
          "name": "",
          "type": "tuple[]"
        }
      ],
      "stateMutability": "view",
      "type": "function"
    },
    {
      "inputs": [
        {
          "internalType": "bytes32",
          "name": "role",
          "type": "bytes32"
        }
      ],
      "name": "getRoleAdmin",
      "outputs": [
        {
          "internalType": "bytes32",
          "name": "",
          "type": "bytes32"
        }
      ],
      "stateMutability": "view",
      "type": "function"
    },
    {
      "inputs": [],
      "name": "gov",
      "outputs": [
        {
          "internalType": "contract AidLedgerGov",
          "name": "",
          "type": "address"
        }
      ],
      "stateMutability": "view",
      "type": "function"
    },
    {
      "inputs": [
        {
          "internalType": "bytes32",
          "name": "role",
          "type": "bytes32"
        },
        {
          "internalType": "address",
          "name": "account",
          "type": "address"
        }
      ],
      "name": "grantRole",
      "outputs": [],
      "stateMutability": "nonpayable",
      "type": "function"
    },
    {
      "inputs": [
        {
          "internalType": "bytes32",
          "name": "role",
          "type": "bytes32"
        },
        {
          "internalType": "address",
          "name": "account",
          "type": "address"
        }
      ],
      "name": "hasRole",
      "outputs": [
        {
          "internalType": "bool",
          "name": "",
          "type": "bool"
        }
      ],
      "stateMutability": "view",
      "type": "function"
    },
    {
      "inputs": [
        {
          "internalType": "bytes32",
          "name": "cnicHash",
          "type": "bytes32"
        }
      ],
      "name": "isCycleExpired",
      "outputs": [
        {
          "internalType": "bool",
          "name": "",
          "type": "bool"
        }
      ],
      "stateMutability": "view",
      "type": "function"
    },
    {
      "inputs": [
        {
          "internalType": "bytes32",
          "name": "cnicHash",
          "type": "bytes32"
        }
      ],
      "name": "issueCard",
      "outputs": [],
      "stateMutability": "nonpayable",
      "type": "function"
    },
    {
      "inputs": [
        {
          "internalType": "bytes32",
          "name": "cnicHash",
          "type": "bytes32"
        }
      ],
      "name": "logApplication",
      "outputs": [],
      "stateMutability": "nonpayable",
      "type": "function"
    },
    {
      "inputs": [
        {
          "internalType": "bytes32",
          "name": "cnicHash",
          "type": "bytes32"
        },
        {
          "internalType": "uint256",
          "name": "pmtScore",
          "type": "uint256"
        },
        {
          "internalType": "bool",
          "name": "isUrban",
          "type": "bool"
        }
      ],
      "name": "markEligible",
      "outputs": [],
      "stateMutability": "nonpayable",
      "type": "function"
    },
    {
      "inputs": [
        {
          "internalType": "bytes32",
          "name": "cnicHash",
          "type": "bytes32"
        },
        {
          "internalType": "string",
          "name": "reason",
          "type": "string"
        }
      ],
      "name": "markIneligible",
      "outputs": [],
      "stateMutability": "nonpayable",
      "type": "function"
    },
    {
      "inputs": [
        {
          "internalType": "bytes32",
          "name": "cnicHash",
          "type": "bytes32"
        },
        {
          "internalType": "string",
          "name": "reason",
          "type": "string"
        }
      ],
      "name": "markKycFailed",
      "outputs": [],
      "stateMutability": "nonpayable",
      "type": "function"
    },
    {
      "inputs": [
        {
          "internalType": "bytes32",
          "name": "cnicHash",
          "type": "bytes32"
        }
      ],
      "name": "markKycPassed",
      "outputs": [],
      "stateMutability": "nonpayable",
      "type": "function"
    },
    {
      "inputs": [
        {
          "internalType": "bytes32",
          "name": "cnicHash",
          "type": "bytes32"
        }
      ],
      "name": "reclaimExpiredFunds",
      "outputs": [],
      "stateMutability": "nonpayable",
      "type": "function"
    },
    {
      "inputs": [
        {
          "internalType": "bytes32",
          "name": "cnicHash",
          "type": "bytes32"
        },
        {
          "internalType": "uint256",
          "name": "amount",
          "type": "uint256"
        }
      ],
      "name": "recordCashWithdrawal",
      "outputs": [],
      "stateMutability": "nonpayable",
      "type": "function"
    },
    {
      "inputs": [
        {
          "internalType": "bytes32",
          "name": "cnicHash",
          "type": "bytes32"
        },
        {
          "internalType": "uint256",
          "name": "amount",
          "type": "uint256"
        }
      ],
      "name": "recordVendorSpend",
      "outputs": [],
      "stateMutability": "nonpayable",
      "type": "function"
    },
    {
      "inputs": [
        {
          "internalType": "bytes32",
          "name": "cnicHash",
          "type": "bytes32"
        }
      ],
      "name": "remainingBalance",
      "outputs": [
        {
          "internalType": "uint256",
          "name": "",
          "type": "uint256"
        }
      ],
      "stateMutability": "view",
      "type": "function"
    },
    {
      "inputs": [
        {
          "internalType": "bytes32",
          "name": "role",
          "type": "bytes32"
        },
        {
          "internalType": "address",
          "name": "callerConfirmation",
          "type": "address"
        }
      ],
      "name": "renounceRole",
      "outputs": [],
      "stateMutability": "nonpayable",
      "type": "function"
    },
    {
      "inputs": [
        {
          "internalType": "bytes32",
          "name": "role",
          "type": "bytes32"
        },
        {
          "internalType": "address",
          "name": "account",
          "type": "address"
        }
      ],
      "name": "revokeRole",
      "outputs": [],
      "stateMutability": "nonpayable",
      "type": "function"
    },
    {
      "inputs": [
        {
          "internalType": "bytes4",
          "name": "interfaceId",
          "type": "bytes4"
        }
      ],
      "name": "supportsInterface",
      "outputs": [
        {
          "internalType": "bool",
          "name": "",
          "type": "bool"
        }
      ],
      "stateMutability": "view",
      "type": "function"
    }
  ],
  "bytecode": "0x60a06040523480156200001157600080fd5b506040516200370c3803806200370c8339810160408190526200003491620003d6565b600180556001600160a01b038416620000945760405162461bcd60e51b815260206004820152601460248201527f476f76206164647265737320726571756972656400000000000000000000000060448201526064015b60405180910390fd5b6001600160a01b038316620000ec5760405162461bcd60e51b815260206004820152601a60248201527f4169644c6564676572206164647265737320726571756972656400000000000060448201526064016200008b565b6001600160a01b038216620001445760405162461bcd60e51b815260206004820152601560248201527f42616e6b2061646472657373207265717569726564000000000000000000000060448201526064016200008b565b6001600160a01b0381166200019c5760405162461bcd60e51b815260206004820152601860248201527f41756469746f722061646472657373207265717569726564000000000000000060448201526064016200008b565b6001600160a01b03841660808190526040805163b10edb0360e01b8152905162000219929163b10edb039160048083019260209291908290030181865afa158015620001ec573d6000803e3d6000fd5b505050506040513d601f19601f8201168201806040525081019062000212919062000433565b846200030a565b506200028c6080516001600160a01b0316630eb714326040518163ffffffff1660e01b8152600401602060405180830381865afa1580156200025f573d6000803e3d6000fd5b505050506040513d601f19601f8201168201806040525081019062000285919062000433565b836200030a565b50620002ff6080516001600160a01b0316636e1d616e6040518163ffffffff1660e01b8152600401602060405180830381865afa158015620002d2573d6000803e3d6000fd5b505050506040513d601f19601f82011682018060405250810190620002f8919062000433565b826200030a565b50505050506200044d565b6000828152602081815260408083206001600160a01b038516845290915281205460ff16620003af576000838152602081815260408083206001600160a01b03861684529091529020805460ff19166001179055620003663390565b6001600160a01b0316826001600160a01b0316847f2f8788117e7eff1d82e926ec794901d17c78024a50270940304540a733656f0d60405160405180910390a4506001620003b3565b5060005b92915050565b80516001600160a01b0381168114620003d157600080fd5b919050565b60008060008060808587031215620003ed57600080fd5b620003f885620003b9565b93506200040860208601620003b9565b92506200041860408601620003b9565b91506200042860608601620003b9565b905092959194509250565b6000602082840312156200044657600080fd5b5051919050565b6080516131ca62000542600039600081816101b20152818161042a015281816104b5015281816105730152818161068d0152818161072d0152818161083e01528181610ab901528181610b4401528181610d3b01528181610dc601528181610e7b0152818161103a01528181611220015281816112ab0152818161136001528181611760015281816119b301528181611a3e01528181611c0401528181611c8f01528181611d4401528181611ede01528181611f690152818161201e015281816121230152818161220001528181612287015281816124cb015281816125560152818161260b01526128ed01526131ca6000f3fe608060405234801561001057600080fd5b50600436106101585760003560e01c806353e37b44116100c3578063ad32cd371161007c578063ad32cd371461037f578063c85791a614610392578063d547741f146103a5578063d5db5682146103b8578063d71ba7c4146103cb578063ecdd2634146103de57600080fd5b806353e37b44146103135780636c2f49ab1461031b57806374badd901461032e5780638353ab781461035157806391d1485414610364578063a217fddf1461037757600080fd5b80633633873911610115578063363387391461023057806336568abe1461024357806336a65a341461025657806339cd53ee146102695780633b89f398146102e0578063413faf22146102f357600080fd5b806301ffc9a71461015d578063057bce901461018557806311425f891461019a57806312d43a51146101ad578063248a9ca3146101ec5780632f2ff15d1461021d575b600080fd5b61017061016b366004612aba565b6103f1565b60405190151581526020015b60405180910390f35b610198610193366004612ae4565b610428565b005b6101986101a8366004612ae4565b61083c565b6101d47f000000000000000000000000000000000000000000000000000000000000000081565b6040516001600160a01b03909116815260200161017c565b61020f6101fa366004612ae4565b60009081526020819052604090206001015490565b60405190815260200161017c565b61019861022b366004612afd565b610a8c565b61019861023e366004612b39565b610ab7565b610198610251366004612afd565b610d01565b610198610264366004612bb5565b610d39565b6102ca610277366004612ae4565b600260208190526000918252604090912080546001820154928201546003830154600484015460058501546006860154600787015460089097015460ff808816996101009098048116989681169691168a565b60405161017c9a99989796959493929190612c0f565b6101986102ee366004612bb5565b61121e565b610306610301366004612ae4565b61160a565b60405161017c9190612caa565b60045461020f565b610198610329366004612b39565b61175e565b61034161033c366004612ae4565b6118e3565b60405161017c9493929190612d45565b61019861035f366004612b39565b6119b1565b610170610372366004612afd565b611bd9565b61020f600081565b61019861038d366004612ae4565b611c02565b6101986103a0366004612d88565b611edc565b6101986103b3366004612afd565b612441565b6101706103c6366004612ae4565b612466565b61020f6103d9366004612ae4565b61247d565b6101986103ec366004612ae4565b6124c9565b60006001600160e01b03198216637965db0b60e01b148061042257506301ffc9a760e01b6001600160e01b03198316145b92915050565b7f00000000000000000000000000000000000000000000000000000000000000006001600160a01b0316630eb714326040518163ffffffff1660e01b8152600401602060405180830381865afa158015610486573d6000803e3d6000fd5b505050506040513d601f19601f820116820180604052508101906104aa9190612dc1565b6104b3816127be565b7f00000000000000000000000000000000000000000000000000000000000000006001600160a01b0316635c975abb6040518163ffffffff1660e01b8152600401602060405180830381865afa158015610511573d6000803e3d6000fd5b505050506040513d601f19601f820116820180604052508101906105359190612dda565b1561055b5760405162461bcd60e51b815260040161055290612df7565b60405180910390fd5b6040516335b11ddf60e11b81526004810183905282907f00000000000000000000000000000000000000000000000000000000000000006001600160a01b031690636b623bbe90602401602060405180830381865afa1580156105c2573d6000803e3d6000fd5b505050506040513d601f19601f820116820180604052508101906105e69190612dda565b156106035760405162461bcd60e51b815260040161055290612e2e565b60008381526002602052604090206005815460ff16600781111561062957610629612bd7565b146106895760405162461bcd60e51b815260206004820152602a60248201527f4752433a204d75737420626520454c494749424c45206265666f726520636172604482015269642069737375616e636560b01b6064820152608401610552565b60007f00000000000000000000000000000000000000000000000000000000000000006001600160a01b031663de1836906040518163ffffffff1660e01b8152600401602060405180830381865afa1580156106e9573d6000803e3d6000fd5b505050506040513d601f19601f8201168201806040525081019061070d9190612dc1565b604051636308d5a760e11b815260048101879052602481018290529091507f00000000000000000000000000000000000000000000000000000000000000006001600160a01b03169063c611ab4e90604401600060405180830381600087803b15801561077957600080fd5b505af115801561078d573d6000803e3d6000fd5b50508354600660ff19918216811786556004860185905560006005870181905581870155426003870155600886018054909216909155604080518082019091526013815272434152445f4953535545445f42595f42414e4b60681b60208201526107fb9350889250336127cb565b6040805182815233602082015286917f1d924156bfeb597ee1452f22372007ed35015f372bd0677e0f4faf59bc0e7069910160405180910390a25050505050565b7f00000000000000000000000000000000000000000000000000000000000000006001600160a01b0316630eb714326040518163ffffffff1660e01b8152600401602060405180830381865afa15801561089a573d6000803e3d6000fd5b505050506040513d601f19601f820116820180604052508101906108be9190612dc1565b6108c7816127be565b6108cf6128ab565b60008281526002602052604090206006815460ff1660078111156108f5576108f5612bd7565b148061091657506007815460ff16600781111561091457610914612bd7565b145b6109625760405162461bcd60e51b815260206004820152601e60248201527f4752433a204e6f20616374697665206361726420746f207265636c61696d00006044820152606401610552565b61096b816128d5565b6109b75760405162461bcd60e51b815260206004820152601e60248201527f4752433a204379636c6520686173206e6f7420796574206578706972656400006044820152606401610552565b600881015460ff1615610a055760405162461bcd60e51b815260206004820152601660248201527511d490ce88105b1c9958591e481c9958db185a5b595960521b6044820152606401610552565b6000816006015482600501548360040154610a209190612e7b565b610a2a9190612e7b565b60088301805460ff19166001179055600060048401556040805182815242602082015291925085917f97ea40236e07cb626c6169e1f72bc5a503f31023dd6ceade59633545976e5240910160405180910390a25050610a8860018055565b5050565b600082815260208190526040902060010154610aa7816127be565b610ab18383612984565b50505050565b7f00000000000000000000000000000000000000000000000000000000000000006001600160a01b031663b10edb036040518163ffffffff1660e01b8152600401602060405180830381865afa158015610b15573d6000803e3d6000fd5b505050506040513d601f19601f82011682018060405250810190610b399190612dc1565b610b42816127be565b7f00000000000000000000000000000000000000000000000000000000000000006001600160a01b0316635c975abb6040518163ffffffff1660e01b8152600401602060405180830381865afa158015610ba0573d6000803e3d6000fd5b505050506040513d601f19601f82011682018060405250810190610bc49190612dda565b15610be15760405162461bcd60e51b815260040161055290612df7565b600360008581526002602052604090205460ff166007811115610c0657610c06612bd7565b14610c535760405162461bcd60e51b815260206004820152601b60248201527f4d75737420626520696e204b59435f50415353454420737461746500000000006044820152606401610552565b600084815260026020526040902080546004919060ff19166001830217905550610cb784600485858080601f0160208091040260200160405190810160405280939291908181526020018383808284376000920191909152503392506127cb915050565b837ff26f419cd9bba34b2b92e9e31b9c5debcc0f1103a02ff5938d554cc1fb7459846000806000878733604051610cf396959493929190612eb7565b60405180910390a250505050565b6001600160a01b0381163314610d2a5760405163334bd91960e11b815260040160405180910390fd5b610d348282612a16565b505050565b7f00000000000000000000000000000000000000000000000000000000000000006001600160a01b0316630eb714326040518163ffffffff1660e01b8152600401602060405180830381865afa158015610d97573d6000803e3d6000fd5b505050506040513d601f19601f82011682018060405250810190610dbb9190612dc1565b610dc4816127be565b7f00000000000000000000000000000000000000000000000000000000000000006001600160a01b0316635c975abb6040518163ffffffff1660e01b8152600401602060405180830381865afa158015610e22573d6000803e3d6000fd5b505050506040513d601f19601f82011682018060405250810190610e469190612dda565b15610e635760405162461bcd60e51b815260040161055290612df7565b6040516335b11ddf60e11b81526004810184905283907f00000000000000000000000000000000000000000000000000000000000000006001600160a01b031690636b623bbe90602401602060405180830381865afa158015610eca573d6000803e3d6000fd5b505050506040513d601f19601f82011682018060405250810190610eee9190612dda565b15610f0b5760405162461bcd60e51b815260040161055290612e2e565b610f136128ab565b60008481526002602052604090206006815460ff166007811115610f3957610f39612bd7565b1480610f5a57506007815460ff166007811115610f5857610f58612bd7565b145b610f9d5760405162461bcd60e51b815260206004820152601460248201527311d490ce8810d85c99081b9bdd081a5cdcdd595960621b6044820152606401610552565b610fa6816128d5565b15610ff35760405162461bcd60e51b815260206004820181905260248201527f4752433a20517561727465726c79206379636c652068617320657870697265646044820152606401610552565b600084116110385760405162461bcd60e51b81526020600482015260126024820152710416d6f756e74206d757374206265203e20360741b6044820152606401610552565b7f00000000000000000000000000000000000000000000000000000000000000006001600160a01b0316636a5101866040518163ffffffff1660e01b8152600401602060405180830381865afa158015611096573d6000803e3d6000fd5b505050506040513d601f19601f820116820180604052508101906110ba9190612dc1565b8482600501546110ca9190612efc565b111561113e5760405162461bcd60e51b815260206004820152603760248201527f4752433a2045786365656473206d6178696d756d20636173682077697468647260448201527f6177616c206c696d6974202831302c30303020504b52290000000000000000006064820152608401610552565b806004015484826006015483600501546111589190612efc565b6111629190612efc565b11156111805760405162461bcd60e51b815260040161055290612f0f565b838160050160008282546111949190612efc565b9091555050805460ff19166007178155600681015460058201546004830154600092916111c091612e7b565b6111ca9190612e7b565b6040805187815260208101839052339181019190915290915086907f0fa5f48ac01106f7da3e4c0f7d32d00463ef18cfeae3d5f9ed108eb25f6dc553906060015b60405180910390a25050610ab160018055565b7f00000000000000000000000000000000000000000000000000000000000000006001600160a01b0316630eb714326040518163ffffffff1660e01b8152600401602060405180830381865afa15801561127c573d6000803e3d6000fd5b505050506040513d601f19601f820116820180604052508101906112a09190612dc1565b6112a9816127be565b7f00000000000000000000000000000000000000000000000000000000000000006001600160a01b0316635c975abb6040518163ffffffff1660e01b8152600401602060405180830381865afa158015611307573d6000803e3d6000fd5b505050506040513d601f19601f8201168201806040525081019061132b9190612dda565b156113485760405162461bcd60e51b815260040161055290612df7565b6040516335b11ddf60e11b81526004810184905283907f00000000000000000000000000000000000000000000000000000000000000006001600160a01b031690636b623bbe90602401602060405180830381865afa1580156113af573d6000803e3d6000fd5b505050506040513d601f19601f820116820180604052508101906113d39190612dda565b156113f05760405162461bcd60e51b815260040161055290612e2e565b6113f86128ab565b60008481526002602052604090206006815460ff16600781111561141e5761141e612bd7565b148061143f57506007815460ff16600781111561143d5761143d612bd7565b145b6114825760405162461bcd60e51b815260206004820152601460248201527311d490ce8810d85c99081b9bdd081a5cdcdd595960621b6044820152606401610552565b61148b816128d5565b156114d85760405162461bcd60e51b815260206004820181905260248201527f4752433a20517561727465726c79206379636c652068617320657870697265646044820152606401610552565b6000841161151d5760405162461bcd60e51b81526020600482015260126024820152710416d6f756e74206d757374206265203e20360741b6044820152606401610552565b806004015484826006015483600501546115379190612efc565b6115419190612efc565b111561155f5760405162461bcd60e51b815260040161055290612f0f565b838160060160008282546115739190612efc565b9091555050805460ff1916600790811782558101805485919060009061159a908490612efc565b9091555050600681015460058201546004830154600092916115bb91612e7b565b6115c59190612e7b565b6040805187815260208101839052339181019190915290915086907fe8c475b82080ff6ed79333b37af76f558ecb1d2d612e684e1c44e45c91466be19060600161120b565b606060036000838152602001908152602001600020805480602002602001604051908101604052809291908181526020016000905b82821015611753576000848152602090206040805160808101909152600484029091018054829060ff16600781111561167a5761167a612bd7565b600781111561168b5761168b612bd7565b815260200160018201805461169f90612f52565b80601f01602080910402602001604051908101604052809291908181526020018280546116cb90612f52565b80156117185780601f106116ed57610100808354040283529160200191611718565b820191906000526020600020905b8154815290600101906020018083116116fb57829003601f168201915b505050918352505060028201546001600160a01b0316602080830191909152600390920154604090910152908252600192909201910161163f565b505050509050919050565b7f00000000000000000000000000000000000000000000000000000000000000006001600160a01b0316636e1d616e6040518163ffffffff1660e01b8152600401602060405180830381865afa1580156117bc573d6000803e3d6000fd5b505050506040513d601f19601f820116820180604052508101906117e09190612dc1565b6117e9816127be565b6004604051806080016040528086815260200185858080601f016020809104026020016040519081016040528093929190818152602001838380828437600092018290525093855250503360208085019190915242604090940193909352508354600181810186559482529082902083516004909202019081559082015191929091908201906118799082612ff0565b506040828101516002830180546001600160a01b0319166001600160a01b039092169190911790556060909201516003909101555184907f82738355d4c3c330db48485754be950cab3c3f879ac8376ef5038ce84f559cb790610cf39086908690339042906130b0565b600481815481106118f357600080fd5b6000918252602090912060049091020180546001820180549193509061191890612f52565b80601f016020809104026020016040519081016040528092919081815260200182805461194490612f52565b80156119915780601f1061196657610100808354040283529160200191611991565b820191906000526020600020905b81548152906001019060200180831161197457829003601f168201915b50505050600283015460039093015491926001600160a01b031691905084565b7f00000000000000000000000000000000000000000000000000000000000000006001600160a01b031663b10edb036040518163ffffffff1660e01b8152600401602060405180830381865afa158015611a0f573d6000803e3d6000fd5b505050506040513d601f19601f82011682018060405250810190611a339190612dc1565b611a3c816127be565b7f00000000000000000000000000000000000000000000000000000000000000006001600160a01b0316635c975abb6040518163ffffffff1660e01b8152600401602060405180830381865afa158015611a9a573d6000803e3d6000fd5b505050506040513d601f19601f82011682018060405250810190611abe9190612dda565b15611adb5760405162461bcd60e51b815260040161055290612df7565b600160008581526002602052604090205460ff166007811115611b0057611b00612bd7565b14611b485760405162461bcd60e51b81526020600482015260186024820152774d75737420626520696e204150504c49454420737461746560401b6044820152606401610552565b600084815260026020818152604092839020805460ff1916831790558251601f8601829004820281018201909352848352611ba29287929187908790819084018382808284376000920191909152503392506127cb915050565b837f303058dd20a92831c0dc53e0377820743f962c582180c2fe767a3804d4836c526000858533604051610cf394939291906130e0565b6000918252602082815260408084206001600160a01b0393909316845291905290205460ff1690565b7f00000000000000000000000000000000000000000000000000000000000000006001600160a01b031663b10edb036040518163ffffffff1660e01b8152600401602060405180830381865afa158015611c60573d6000803e3d6000fd5b505050506040513d601f19601f82011682018060405250810190611c849190612dc1565b611c8d816127be565b7f00000000000000000000000000000000000000000000000000000000000000006001600160a01b0316635c975abb6040518163ffffffff1660e01b8152600401602060405180830381865afa158015611ceb573d6000803e3d6000fd5b505050506040513d601f19601f82011682018060405250810190611d0f9190612dda565b15611d2c5760405162461bcd60e51b815260040161055290612df7565b6040516335b11ddf60e11b81526004810183905282907f00000000000000000000000000000000000000000000000000000000000000006001600160a01b031690636b623bbe90602401602060405180830381865afa158015611d93573d6000803e3d6000fd5b505050506040513d601f19601f82011682018060405250810190611db79190612dda565b15611dd45760405162461bcd60e51b815260040161055290612e2e565b60008381526002602052604081205460ff166007811115611df757611df7612bd7565b14611e445760405162461bcd60e51b815260206004820152601c60248201527f4170706c6963616e7420616c72656164792072656769737465726564000000006044820152606401610552565b600083815260026020526040902080546001919060ff191682800217905550611e9d83600160405180604001604052806015815260200174105414131250d0551253d397d4d550935255151151605a1b815250336127cb565b827f8d04959f08e3e8774427705a9b58fb3120f8fa9bf29e22e299ca1a6f1c1ceeec42604051611ecf91815260200190565b60405180910390a2505050565b7f00000000000000000000000000000000000000000000000000000000000000006001600160a01b031663b10edb036040518163ffffffff1660e01b8152600401602060405180830381865afa158015611f3a573d6000803e3d6000fd5b505050506040513d601f19601f82011682018060405250810190611f5e9190612dc1565b611f67816127be565b7f00000000000000000000000000000000000000000000000000000000000000006001600160a01b0316635c975abb6040518163ffffffff1660e01b8152600401602060405180830381865afa158015611fc5573d6000803e3d6000fd5b505050506040513d601f19601f82011682018060405250810190611fe99190612dda565b156120065760405162461bcd60e51b815260040161055290612df7565b6040516335b11ddf60e11b81526004810185905284907f00000000000000000000000000000000000000000000000000000000000000006001600160a01b031690636b623bbe90602401602060405180830381865afa15801561206d573d6000803e3d6000fd5b505050506040513d601f19601f820116820180604052508101906120919190612dda565b156120ae5760405162461bcd60e51b815260040161055290612e2e565b60008581526002602052604090206003815460ff1660078111156120d4576120d4612bd7565b146121215760405162461bcd60e51b815260206004820181905260248201527f4b5943206d7573742070617373206265666f726520656c69676962696c6974796044820152606401610552565b7f00000000000000000000000000000000000000000000000000000000000000006001600160a01b031663f2c767d16040518163ffffffff1660e01b8152600401602060405180830381865afa15801561217f573d6000803e3d6000fd5b505050506040513d601f19601f820116820180604052508101906121a39190612dda565b156121f7578054610100900460ff166121f75760405162461bcd60e51b815260206004820152601660248201527511d490ce8812d650c81b9bdd0818dbdb999a5c9b595960521b6044820152606401610552565b600084612285577f00000000000000000000000000000000000000000000000000000000000000006001600160a01b0316633a00f1c96040518163ffffffff1660e01b8152600401602060405180830381865afa15801561225c573d6000803e3d6000fd5b505050506040513d601f19601f820116820180604052508101906122809190612dc1565b612307565b7f00000000000000000000000000000000000000000000000000000000000000006001600160a01b031663c4e2dd9d6040518163ffffffff1660e01b8152600401602060405180830381865afa1580156122e3573d6000803e3d6000fd5b505050506040513d601f19601f820116820180604052508101906123079190612dc1565b90508086111585612330576040518060600160405280603681526020016131296036913961234a565b60405180606001604052806036815260200161315f603691395b906123685760405162461bcd60e51b81526004016105529190613115565b508154600560ff1991821681178455600184018890556002840180549092168715151790915560408051808201909152601281527111531251d250925312551657d41054d4d15160721b60208201526123c3918991336127cb565b6040805160018152602081018890528615158183015260a0606082018190526012908201527111531251d250925312551657d41054d4d15160721b60c0820152336080820152905188917ff26f419cd9bba34b2b92e9e31b9c5debcc0f1103a02ff5938d554cc1fb745984919081900360e00190a250505050505050565b60008281526020819052604090206001015461245c816127be565b610ab18383612a16565b6000818152600260205260408120610422906128d5565b60008181526002602052604081206004810154820361249f5750600092915050565b8060060154816005015482600401546124b89190612e7b565b6124c29190612e7b565b9392505050565b7f00000000000000000000000000000000000000000000000000000000000000006001600160a01b031663b10edb036040518163ffffffff1660e01b8152600401602060405180830381865afa158015612527573d6000803e3d6000fd5b505050506040513d601f19601f8201168201806040525081019061254b9190612dc1565b612554816127be565b7f00000000000000000000000000000000000000000000000000000000000000006001600160a01b0316635c975abb6040518163ffffffff1660e01b8152600401602060405180830381865afa1580156125b2573d6000803e3d6000fd5b505050506040513d601f19601f820116820180604052508101906125d69190612dda565b156125f35760405162461bcd60e51b815260040161055290612df7565b6040516335b11ddf60e11b81526004810183905282907f00000000000000000000000000000000000000000000000000000000000000006001600160a01b031690636b623bbe90602401602060405180830381865afa15801561265a573d6000803e3d6000fd5b505050506040513d601f19601f8201168201806040525081019061267e9190612dda565b1561269b5760405162461bcd60e51b815260040161055290612e2e565b600160008481526002602052604090205460ff1660078111156126c0576126c0612bd7565b146127085760405162461bcd60e51b81526020600482015260186024820152774d75737420626520696e204150504c49454420737461746560401b6044820152606401610552565b600083815260026020908152604091829020805461ffff19166101031790558151808301909252601082526f4b59435f5041535345445f4e4144524160801b9082015261275a908490600390336127cb565b60408051600181526060602082018190526010908201526f4b59435f5041535345445f4e4144524160801b6080820152339181019190915283907f303058dd20a92831c0dc53e0377820743f962c582180c2fe767a3804d4836c529060a001611ecf565b6127c88133612a81565b50565b6003600085815260200190815260200160002060405180608001604052808560078111156127fb576127fb612bd7565b815260208082018690526001600160a01b03851660408301524260609092019190915282546001818101855560009485529190932082516004909402018054929390929091839160ff19169083600781111561285957612859612bd7565b0217905550602082015160018201906128729082612ff0565b5060408201516002820180546001600160a01b0319166001600160a01b0390921691909117905560609091015160039091015550505050565b6002600154036128ce57604051633ee5aeb560e01b815260040160405180910390fd5b6002600155565b600081600301546000036128eb57506000919050565b7f00000000000000000000000000000000000000000000000000000000000000006001600160a01b0316633d3eeac96040518163ffffffff1660e01b8152600401602060405180830381865afa158015612949573d6000803e3d6000fd5b505050506040513d601f19601f8201168201806040525081019061296d9190612dc1565b826003015461297c9190612efc565b421192915050565b60006129908383611bd9565b612a0e576000838152602081815260408083206001600160a01b03861684529091529020805460ff191660011790556129c63390565b6001600160a01b0316826001600160a01b0316847f2f8788117e7eff1d82e926ec794901d17c78024a50270940304540a733656f0d60405160405180910390a4506001610422565b506000610422565b6000612a228383611bd9565b15612a0e576000838152602081815260408083206001600160a01b0386168085529252808320805460ff1916905551339286917ff6391f5c32d9c69d2a47ea670b442974b53935d1edc7fd64eb21e047a839171b9190a4506001610422565b612a8b8282611bd9565b610a885760405163e2517d3f60e01b81526001600160a01b038216600482015260248101839052604401610552565b600060208284031215612acc57600080fd5b81356001600160e01b0319811681146124c257600080fd5b600060208284031215612af657600080fd5b5035919050565b60008060408385031215612b1057600080fd5b8235915060208301356001600160a01b0381168114612b2e57600080fd5b809150509250929050565b600080600060408486031215612b4e57600080fd5b83359250602084013567ffffffffffffffff80821115612b6d57600080fd5b818601915086601f830112612b8157600080fd5b813581811115612b9057600080fd5b876020828501011115612ba257600080fd5b6020830194508093505050509250925092565b60008060408385031215612bc857600080fd5b50508035926020909101359150565b634e487b7160e01b600052602160045260246000fd5b60088110612c0b57634e487b7160e01b600052602160045260246000fd5b9052565b6101408101612c1e828d612bed565b991515602082015260408101989098529515156060880152608087019490945260a086019290925260c085015260e0840152610100830152151561012090910152919050565b6000815180845260005b81811015612c8a57602081850181015186830182015201612c6e565b506000602082860101526020601f19601f83011685010191505092915050565b60006020808301818452808551808352604092508286019150828160051b87010184880160005b83811015612d3757603f1989840301855281516080612cf1858351612bed565b88820151818a870152612d0682870182612c64565b838a01516001600160a01b0316878b0152606093840151939096019290925250509386019390860190600101612cd1565b509098975050505050505050565b848152608060208201526000612d5e6080830186612c64565b6001600160a01b03949094166040830152506060015292915050565b80151581146127c857600080fd5b600080600060608486031215612d9d57600080fd5b83359250602084013591506040840135612db681612d7a565b809150509250925092565b600060208284031215612dd357600080fd5b5051919050565b600060208284031215612dec57600080fd5b81516124c281612d7a565b60208082526019908201527f4752433a2053797374656d207061757365642062792053425000000000000000604082015260600190565b6020808252601f908201527f4752433a20434e494320697320626c61636b6c69737465642062792053425000604082015260600190565b634e487b7160e01b600052601160045260246000fd5b8181038181111561042257610422612e65565b81835281816020850137506000828201602090810191909152601f909101601f19169091010190565b8615158152856020820152841515604082015260a060608201526000612ee160a083018587612e8e565b905060018060a01b0383166080830152979650505050505050565b8082018082111561042257610422612e65565b60208082526023908201527f4752433a20496e73756666696369656e7420717561727465726c792062616c616040820152626e636560e81b606082015260800190565b600181811c90821680612f6657607f821691505b602082108103612f8657634e487b7160e01b600052602260045260246000fd5b50919050565b634e487b7160e01b600052604160045260246000fd5b601f821115610d3457600081815260208120601f850160051c81016020861015612fc95750805b601f850160051c820191505b81811015612fe857828155600101612fd5565b505050505050565b815167ffffffffffffffff81111561300a5761300a612f8c565b61301e816130188454612f52565b84612fa2565b602080601f831160018114613053576000841561303b5750858301515b600019600386901b1c1916600185901b178555612fe8565b600085815260208120601f198616915b8281101561308257888601518255948401946001909101908401613063565b50858210156130a05787850151600019600388901b60f8161c191681555b5050505050600190811b01905550565b6060815260006130c4606083018688612e8e565b6001600160a01b03949094166020830152506040015292915050565b84151581526060602082015260006130fc606083018587612e8e565b905060018060a01b038316604083015295945050505050565b6020815260006124c26020830184612c6456fe4752433a20504d542053636f7265206578636565647320527572616c20706f7665727479207468726573686f6c64202833322e3030294752433a20504d542053636f7265206578636565647320557262616e20706f7665727479207468726573686f6c64202833382e303029a26469706673582212208ae3764820ade1ab14b7da5353ac05e72e6e5850c462b09a0ebe24c1a78dd23664736f6c63430008140033",
  "linkReferences": {},
  "deployedLinkReferences": {}
}