{
  "_format": "hh-sol-artifact-1",
  "contractName": "Counter",
  "sourceName": "contracts/Counter.sol",
  "abi": [
    {
      "inputs": [],
      "name": "decrementCounter",
      "outputs": [],
      "stateMutability": "nonpayable",
      "type": "function"
    },
    {
      "inputs": [],
      "name": "getCount",
      "outputs": [
        {
          "internalType": "int256",
          "name": "",
          "type": "int256"
        }
      ],
      "stateMutability": "view",
      "type": "function"
    },
    {
      "inputs": [],
      "name": "incrementCounter",
      "outputs": [],
      "stateMutability": "nonpayable",
      "type": "function"
    }
  ],
  "bytecode": "0x608060405260008055348015601357600080fd5b506101d7806100236000396000f3fe608060405234801561001057600080fd5b50600436106100415760003560e01c80635b34b96614610046578063a87d942c14610050578063f5c5ad831461006e575b600080fd5b61004e610078565b005b610058610093565b60405161006591906100d0565b60405180910390f35b61007661009c565b005b600160008082825461008a919061011a565b92505081905550565b60008054905090565b60016000808282546100ae919061015e565b92505081905550565b6000819050919050565b6100ca816100b7565b82525050565b60006020820190506100e560008301846100c1565b92915050565b7f4e487b7100000000000000000000000000000000000000000000000000000000600052601160045260246000fd5b6000610125826100b7565b9150610130836100b7565b925082820190508281121560008312168382126000841215161715610158576101576100eb565b5b92915050565b6000610169826100b7565b9150610174836100b7565b925082820390508181126000841216828213600085121516171561019b5761019a6100eb565b5b9291505056fea26469706673582212208f464792e9b77ac748fa929ae8bd1212f97272f24c86f9ac05fe2dd76e2c724664736f6c634300081c0033",
  "linkReferences": {},
  "deployedLinkReferences": {}
}